:100000000C94780B0C94A00B0C94A00B0C94A00BEC
:100010000C94A00B0C94A00B0C94A00B0C94A00BB4
:100020000C94A00B0C94A00B0C9417200C9489201A
:100030000C94A00B0C94A00B0C94A00B0C94A00B94
:100040000C94A00B0C94A00B0C94A00B0C94A00B84
:100050000C94A00B0C94A00B0C94A00B0C94F52505
:100060000C94A00B0C94A00B0C94A00B0C94A00B64
:100070000C94A00B0C94A00B0C94A00B0C94A00B54
:100080000C94A00B0C94A00B0C94A00B0C94A00B44
:100090000C94A00B0C94A00B0C94A00B0C94A00B34
:1000A0000C94A00B0C94A00B0C94A00B482D4C2D81
:1000B000372D3E2D212D272D2D2D312D792D502DF4
:1000C000F0304652414341534153544500594F5536
:1000D000204641494C45440020534F4E49444F204F
:1000E0002000204944494F4D4120200020494E49DD
:1000F00043494F20200020534F554E4420202000DC
:100100004C414E4755414745200020205354415211
:1001100054202000F0F89C8E8783878E9CF8F00096
:1001200000FEFF0303030303070EFCF80000FEFFBD
:100130000303030303070EFCF80000FFFF000000A9
:1001400000000000FFFF0000FEFF8383838383C75E
:10015000EE7C380000F8FC0E07030303070EFCF8E2
:1001600000003F7FE0C08080C0E07F3FFFFF0101D3
:100170000101010101FFFF0000FFFF0C0C0C0C1C32
:100180003E77E3C100007FFFC0C0C0C0C0E0703F49
:100190001F00001F3F70E0C0C0C0E0703F1F0000A4
:1001A0007FFFC1C1C1C1C1E3773E1C00001F3F708A
:1001B000E0C0C0C0E0703F1F000000000001FFFF72
:1001C00001000000D5F08D14A1C881CFD9F1AF2076
:1001D000000000F0080890902020E0F0F0F8F8F817
:1001E000F8F00F00F00F60980565970F1F1F3F3F55
:1001F0003F00F804048444484848F8FCFCFEFEFE36
:10020000FE0007F80007F8001EE1011FE7070F0FC7
:100210000F1010000000000000000000000000A00F
:100220009080000000000000000000000000070FA8
:100230000D0D070000000000000000000000C0E8F5
:100240006860C00000000000000000000000010322
:10025000020201000070FCFEFEFEFEFEFCFEE40059
:1002600000800000000000317F3F1F1F1F3F7E7E87
:100270002703000070FCFEFEFEFEFEFCFE7C7060AC
:1002800000000000000001010F3F7F3F3F7F3E1E46
:100290000E1C0000000070F87CFEFEFEFEFE7C3CA2
:1002A00078300000000000003E7F3F0F1F3F1F0618
:1002B00000000000000070F87CFEFEFCFEFE7C3CAE
:1002C00078300000000000003E7F3F0F1F3F1F06F8
:1002D000000000000070FCFEFEFEFEFEFCFEE400DE
:1002E00000800000000000317F7F1F1F1F7F7E3EC7
:1002F0000F1F0000000070F87CFEFEFEFEFE7CF882
:1003000070000000000000003E7F3F0F3F7F3E0472
:100310000E00000000C0E0F0F0F0F0E0F0A00000FF
:100320000080000003076F7F7F7F7F1F5F7F7F1E3E
:1003300007030000000000000000000000000000B3
:10034000000000C0E0F0F0F8F8FCFCFCFEFEFEFE51
:10035000FEFEFC00000000000000808080808080A5
:10036000000000E0F0F8F8FCFEFFFFFFFFFFFFFFDA
:10037000FFFEFC10100000004078CCFC0454A844A0
:1003800000000000000000000000301A0D0E0616EC
:100390003C2002000000004078CCFCF4C48810200F
:1003A00000000000000000000000000A3D060E34BE
:1003B00018000400000000000070087CC8B8C87C69
:1003C00008083000000000000000003E0E040E1F70
:1003D00006000000000000000070083070787030E7
:1003E00000083000000000000000003E0F030D1F59
:1003F00006000000000000004078CCFC0454A84433
:1004000000000000000000000000301A0D0E06166B
:100410003C000A1C000000004078CCFC0454A844B6
:1004200000000080000000000000301A0D0E0616CB
:100430003C00050300000000007008307078703048
:1004400008700000000000000000003E0F030D3E99
:1004500000040E000000000000700830707870305A
:1004600008700000000000000000003E0D030F3E79
:1004700000040E00000000000070087CC8B8C87CB2
:1004800008700000000000000000003E0E040E3E58
:1004900000000C00000000000070087CC8B8C87C98
:1004A00008700000000000000000003E0E040E3E38
:1004B0000000060000000000C0E0E02060C0200056
:1004C00000000000000000020324576E65020502D0
:1004D0001800020000000000C0E0E020A040200062
:1004E00000000000000000026364472802050208C3
:1004F00016000200000000000000000000000000E4
:1005000000000000000080208010200824802A00C5
:1005100014400A261C00000000000000000000003B
:10052000000000000000401020481084080004A0D3
:1005300002061284200000000000000080808080FD
:100540008080000000F018A80834360522552A02E1
:10055000365E5DA2CC01150405080B0B050F1117C3
:100560000F19141E0227102807360A36123D073DC0
:1005700010050605110D1F0E1A110913281A071C64
:10058000181C292817321E36223A103E2C70F0F81B
:10059000FC3F1F0F0E0038787E7E1E1C0000183CAA
:1005A0007E7E3C1800081C1C3E3E1C1C083C7EFF46
:1005B000FFFFFF7E3C7EFFFFFFFFFFFF7E08003F47
:1005C0007F3F00080020103F7F3F10200070F87C24
:1005D0003E3F3F1E0C383C7CFCFCFC7C1C00F8F8C9
:1005E000F8F8FC7C1C0E1E7E7C7C7E1E0E38387853
:1005F00078787838382F079896CE49272FA53A393A
:1006000002D3CB6C721DE6B395CD554EC94E8E33D9
:100610003F3F70AE9CFC5457577D5DB7FAAA4FA57B
:10062000AA52B7AB6455AA2A5595BBDCA573B5BAD7
:10063000577DD557ADEE55ABDBD53A77C9F4B292BD
:10064000B5AB55552A95AA64E7D695EC5C252F994C
:1006500056763467974A2AE79CEAAFAEE472B9CD82
:100660006ED3415BE9F43ABD5EAFD74E56B272DB52
:1006700055B90A816E1BB752CB6C369B546EB9DDEF
:100680006ED7E37BB9DC6EB7DBADB24A872BF732AE
:100690009B4E662B9BCFE6E34D6F95A45233567568
:1006A000557555444EAFDD3BC595546EB9CD2A778F
:1006B000FB65E8AAF8A34E6F2F55BB5AA79555586E
:1006C00072DE212A5B95ABAAABCA55E52A62BE2D24
:1006D00061E5AA7215A727CA954DFDE5D2CA2A2958
:1006E000DF1167F3D95C55369FAD6C28B2B5FCBFFE
:1006F000DC565965DDADD792CEA34FA18B4A86A5B6
:10070000B2844ABB739F532EB9CC46B9744AC97B95
:10071000D5AB5EF5AAB74A3A27C7513A9FEC547554
:10072000AAFAAB53A9AB54E7B2B339EFF0E7BCC3B5
:1007300050D5555557E5E3B37E3C29AD4ADEF55714
:10074000ABAA72ADA453529DFAD4A73EF5AD6EA7E5
:10075000E4769D4E662B9BAD5C5557A77A79AD9498
:1007600052D97C365BB93AEF944E67F321E9248A7B
:1007700008B395AD5C652B5795AB5C55EA7295BC9B
:100780005C652B57D9E472A9EC57A72A5795AB5C47
:1007900055AE7255B9EA5455577F752AD595CD5641
:1007A000AE7255B9EA54AAAB569D4A7DAFFA5BDDED
:1007B000AA56B7DC29BBAC65ADAA56555DB5AAEA09
:1007C000AA55ADAABA6A557555D55557CD00C20080
:1007D0000808D8A8DE6B312D331EEFF7FBEBFBDBEF
:1007E000F7EF0020601008060400000010300C082D
:1007F0000000001824424A241800081414222A1465
:10080000140852AD765DBA6EB55A9BFEEE7BDF766C
:10081000FFDB143D5291523D1408502D5291522D40
:100820005020C7812854567EB9C7003E1C080000DE
:100830000000382C64C48CCC741C00F888C898CC98
:10084000741C0E1A764C4C761A0E28287848487874
:10085000282821DE12DE12DE21FF43BD25BD25BD85
:1008600043FF833944922AA21CC1FF5F2F17CB8517
:1008700093C73F5F9146A0D0E9F77F3F109AAD6CD8
:10088000C84AA793C94B5DD55D5DBD6A754B25957B
:1008900054524965B7DB4B66B3E94AE6F3612EDC97
:1008A0002557471467CCB1C51755E4C954EE73EB0F
:1008B0004B55F65295BDD4B6234B666B2B15266D62
:1008C000BB2A77B9CBFD2A5DC9D225D3952C5D32E1
:1008D000DDAECA5DEE72BFDAF6AAEADB55EE5E2D3A
:1008E000D115BA96D9DA3925DD2B7567B3D9289792
:1008F000D9749CD96D3A95AD6C2E99CC5572BBDDEF
:10090000A6934ACA51AC7CB5AABAAA6C65238C28B6
:10091000AE5447958C3F57D5958D39B238979D9CED
:10092000294E5C3AF5EF6A57BBB22F95D4EF6A5760
:10093000BBB22F9554FFAE76B52BFB5259A54AA7F3
:10094000546D97A84DBA6D369BAB555557ADAAF26D
:10095000F9BCF3D1E5951B5D31E5F395CC7595AA0E
:100960005DEA764E8EC03096CFD6F252D57DEAAA99
:10097000AAAB5655B9CA55E52AA74AD5F2B2F9E845
:10098000924BA7AEFA72AADC65B7BB5A95BA9C82A5
:10099000BDE4BA9225AB64BA64A954C9D225ABAA06
:1009A000AA54A597C4D975B852D96857EA78F7CA36
:1009B000EFF7B99455EAAEAA52EE72B5BBD47DDD1D
:1009C0005FD595EAAAAEEAAAEAAAAECA5565F3418E
:1009D00047D97C788B2EBAE8621BDDE14FAE4B56CF
:1009E000A96A75BA6495AA92A54B56A9AA52A54BB5
:1009F00056A9AA52A52B5525AB54A54B565555A91A
:100A00004A2F99435B55AEAAABAA5C3955B9CA5572
:100A1000E56A5595ABFB5A55AEAE6A552B4797AD77
:100A20005C652B5795ABEAAAEAAA5CD55555AED6BC
:100A3000BF7255DDABEE3FAD1C04142C1E6DD050C3
:100A400076A99C53723BEEC264B6B25575555D559E
:100A500057D5555D512D95DB812E5264CA49659954
:100A6000AA921D1A974E2ABB8E4A29D6889297EAD7
:100A7000545D5557E52A5BD97C4452A5A40E83D515
:100A800055AD6A555FCA29B574DFA94E752957ABB4
:100A90005257AD5A393998A8F456492595BC9C74DB
:100AA000F2724A5E4E39E59CBABFAA2B57D555B9AA
:100AB000AA565DD54B2A25A5B2EB9C52ABCA656BF5
:100AC00055B9AA555557A9DB29A6E8A20BF4140A73
:100AD000010001F600EC00E200D8001A091D291FF0
:100AE00018321F3E2D0615030F02030F09041D07C0
:100AF000031D0E042E0903390705391504011207D9
:100B0000020D08060F071910092A0908340D093EBD
:100B10000B063E1009022819090A19110E0F1509B2
:100B20001418290A39200F3A160A3C27190A1914F1
:100B30000C2514141B14162114221E142D22142EFD
:100B4000121433191409000212062A2E143C2432FE
:100B50000E2F000808FFFFFFFFFFFFFFFFFFFFFB57
:100B6000E7FBFFFFFFFFFFFFF7EFFFFFFFFFFFF7D1
:100B7000EFF7FFFFFFFFFFEFF7F7EFFFFFFFEFFFDD
:100B8000FFFDDFFFFEB300FF55280000B3FF00FFAD
:100B900055280000FF9BAB9B8B9BAB9BAB3757371C
:100BA0001737573757FF00EE4EAE0E00FF3700EEF7
:100BB0004EAE0E0037FF7FBF8FB753758D2505C929
:100BC000638F1F3F7FFFFCFBE5D3CC134A810402F8
:100BD000C8C0E2F8FCFF3F4FD7EBBB7DDDEDBD7D2C
:100BE000DBEBB74F3FFFF8E5DA819A271A011A27A6
:100BF0009A81DAE5F8EDBD29D323070F3F010A25D5
:100C00008288C1E0F8ABD57B0FD361030F7BCFA304
:100C100051038F7FFFFFE3DCAB1D8B208AC0E33ED7
:100C2000D52A80C8E33F67578F7F076BB37FAF9F9D
:100C30006F7F578B77BFBF5F7F5FBF5F7F0F6F0790
:100C4000B7835BC1EDFF00F5FF0FE5F6F6FF1FEF81
:100C5000EFAFEFAFEFFFF0EFEEEBEA0FEACF03E914
:100C6000ADFDF5FD01CF006F6A7F5C7E00CF03ED27
:100C700001FFFFFFFFCF006F00FEFFFFFFFFFF3F01
:100C800043BDF6725EFFE1DCB9AA735777FFFF7FC1
:100C9000BFFFBF5FBFD7E3DBE7BF7FFFFF380000C9
:100CA000081C041010101000003400000C1000008C
:100CB00006122E2E2E59204855424F2050415A00E0
:100CC0002E2E2E5920454C20424F5351554520463B
:100CD0005545204C4942455241444F2E2E2E002E60
:100CE0002E2E414E44205448455245205741532012
:100CF0005045414345002E2E2E414E442054484538
:100D000020464F52455354205741532052454C459D
:100D1000415345442E2E2E00554E41204C4C4156F9
:100D200045004E45434553495441530041204B45EE
:100D30005900594F55204E45454400554E41204CD1
:100D40004C415645204E4543455349544152415329
:100D5000004C4120534F4C454441442059004F4ED4
:100D600045204B455920594F55204E454544004C90
:100D70004F4E454C494E45535320414E4400544537
:100D80002048415241204C49425245004C41205399
:100D90004F4C454441440057494C4C204D414B4534
:100DA00020594F552046524545004C4F4E454C4921
:100DB0004E455353002050524553494F4E41204118
:100DC000200020205052455353204120202000AACB
:100DD0000D970D8C0D7E0D6F0D5E0D510D3B0D327F
:100DE0000D2C0D220D180DF60CDF0CC00CB20CC230
:100DF0000DB50D1D1E9D9E1F209FA02122A1A22387
:100E000024A3A42526A5A6272628A6101214150378
:100E1000081F051F1F151B1F11111F110E1F151174
:100E20001F05011F111D1F041F001F0010101F1F91
:100E3000041B1F10101F061F1F011F1F111F1F055E
:100E4000071F311F1F051B17151D011F011F101F35
:100E50000F100F1F0C1F1B041B071C071915131F56
:100E6000111F001F001D151711151F07041F17154F
:100E70001D1F151D01011F1F151F17151F0017002E
:100E80000010000B09090B060808060A10110007DC
:100E900012130000000000000000000B09090B06FF
:100EA0000808060B09090B060808060000000000E8
:100EB0000000000A000100070000000B09090B06F2
:100EC0000808060B09090B060808060000020A00BC
:100ED0000000070000000A000100070B09090B06CB
:100EE0000808060A00000A070000070A00000A07AF
:100EF0000000070A101100071213000B09090B0666
:100F000008080600000000000000000A03000A07AD
:100F10000000070A00020A070000070B09090B0678
:100F20000808060A000000070003000A00000A077C
:100F30000000070B09090B060808060A0002000753
:100F40000000000000000A000000070A00030A0772
:100F500000000710141014121512151014050512B4
:100F600015050505051014050512151014101412A9
:100F7000151215101410141215121505051014056C
:100F8000051215101405051215050510141014127C
:100F90001512151014101412151215050505050566
:100FA00001050505050503050505051014101412B6
:100FB0001512151014050512150502101405051259
:100FC0001505050505101405051215050510140372
:100FD00005121516171617181918191617050518DA
:100FE00019050505051617050518191617161718FA
:100FF00019181916171617181918190505161705AF
:1010000005181916170505181905051617161718C6
:1010100019181916171617181918190505050505B1
:10102000030505050505020505050516171617181C
:1010300019181916170505181905051617050518A5
:1010400019050505051617050518190505161705CF
:101050000518190C0D0C0D0E0F0E0F0C0D05050EBD
:101060000F050505050C0D05050E0F0C0D0C0D0EDD
:101070000F0E0F0C0D0C0D0E0F0E0F05050C0D05B0
:10108000050E0F0C0D05050E0F05050C0D0C0D0EB4
:101090000F0E0F0C0D0C0D0E0F0E0F05050505059F
:1010A00002050505050501050505050C0D0C0D0ED0
:1010B0000F0E0F0C0D05050E0F05010C0D05050E8D
:1010C0000F050505050C0D05050E0F05050C0D0199
:1010D000050E0F05050505050505050505050505AD
:1010E00005050501050C03030303030B09080200B2
:1010F00001030307000000000402090707080002BB
:10110000000B0D070A04020C0305070A0402020281
:1011100002020216161A181E2222222626161D2444
:101120002626261726191D242626232618161D21B5
:101130002323251C17261B261B1B1B1C261A1A26BD
:101140001C1B1B2612100E12260E26111212102620
:101150000F26261426100E26260E12260F15141200
:101160001226131311150F1111130F04020202029C
:10117000020202003060080B0002020201000904B2
:1011800000000102020000052400100105240101F5
:10119000010424020605240600010705810310004E
:1011A0004009040100020A00000007050202400095
:1011B0000007058302400000040309041201000235
:1011C000EF02014041233680000101020301417218
:1011D0006475696E6F204C4C430041726475626F98
:1011E00079004018403000000000003E5B4F5B3E3D
:1011F0003E6B4F6B3E1C3E7C3E1C183C7E3C181CDC
:10120000577D571C1C5E7F5E1C00183C1800FFE7D2
:10121000C3E7FF0018241800FFE7DBE7FF30483A78
:10122000060E2629792926407F050507407F0525DA
:101230003F5A3CE73C5A7F3E1C1C08081C1C3E7F62
:1012400014227F22145F5F005F5F06097F017F0029
:101250006689956A606060606094A2FFA294080449
:101260007E040810207E201008082A1C08081C2A6A
:1012700008081E101010100C1E0C1E0C30383E38C2
:1012800030060E3E0E06000000000000005F000069
:101290000007000700147F147F14242A7F2A1223DA
:1012A0001308646236495620500008070300001CEA
:1012B0002241000041221C002A1C7F1C2A08083EF3
:1012C0000808008070300008080808080000606006
:1012D0000020100804023E5149453E00427F400074
:1012E00072494949462141494D331814127F10274C
:1012F000454545393C4A494931412111090736499B
:10130000494936464949291E00001400000040346E
:101310000000000814224114141414140041221473
:101320000802015909063E415D594E7C1211127C9A
:101330007F494949363E414141227F4141413E7FFB
:10134000494949417F090909013E414151737F08DB
:1013500008087F00417F41002040413F017F081481
:1013600022417F404040407F021C027F7F040810E2
:101370007F3E4141413E7F090909063E4151215EC0
:101380007F09192946264949493203017F01033F54
:101390004040403F1F2040201F3F4038403F6314E3
:1013A00008146303047804036159494D43007F41E5
:1013B00041410204081020004141417F0402010222
:1013C0000440404040400003070800205454784047
:1013D0007F284444383844444428384444287F38DB
:1013E0005454541800087E090218A4A49C787F085D
:1013F00004047800447D40002040403D007F1028D8
:10140000440000417F40007C047804787C08040498
:10141000783844444438FC1824241818242418FC30
:101420007C08040408485454542404043F44243CD5
:101430004040207C1C2040201C3C4030403C442844
:101440001028444C9090907C4464544C44000836DE
:10145000410000007700000041360800020102044C
:10146000023C2623263C1EA1A161123A4040207A6C
:1014700038545455592155557941215454784121B6
:101480005554784020545579400C1E5272123955EB
:1014900055555939545454593955545458000045E8
:1014A0007C410002457D420001457C40F029242911
:1014B000F0F0282528F07C545545002054547C54E5
:1014C0007C0A097F49324949493232484848323218
:1014D0004A4848303A4141217A3A42402078009DBA
:1014E000A0A07D39444444393D4040403D3C24FF68
:1014F0002424487E4943662B2FFC2F2BFF0929F615
:1015000020C0887E090320545479410000447D4165
:101510003048484A32384040227A007A0A0A727DBE
:101520000D19317D2629292F2826292929263048D9
:101530004D4020380808080808080808382F10C847
:10154000ACBA2F102834FA00007B000008142A14CB
:101550002222142A14089500220095AA005500AAF8
:10156000AA55AA55AA000000FF00101010FF001491
:101570001414FF001010FF00FF1010F010F01414EE
:1015800014FC001414F700FF0000FF00FF1414F413
:1015900004FC141417101F10101F101F1414141F14
:1015A00000101010F0000000001F101010101F108D
:1015B000101010F010000000FF101010101010108C
:1015C0001010FF10000000FF140000FF00FF0000DB
:1015D0001F10170000FC04F414141710171414F44F
:1015E00004F40000FF00F714141414141414F7008A
:1015F000F7141414171410101F101F141414F414DB
:101600001010F010F000001F101F0000001F140049
:101610000000FC140000F010F01010FF10FF141474
:1016200014FF141010101F00000000F010FFFFFF47
:10163000FFFFF0F0F0F0F0FFFFFF0000000000FF00
:10164000FF0F0F0F0F0F38444438447C2A2A3E14F2
:101650007E02020606027E027E026355494163381D
:1016600044443C04407E201E2006027E020299A5CE
:10167000E7A5991C2A492A1C4C7201724C304A4D2C
:101680004D303048784830BC625A463D3E49494961
:10169000007E0101017E2A2A2A2A2A44445F44440A
:1016A00040514A444040444A51400000FF0103E099
:1016B00080FF000008086B6B083612362436060FD0
:1016C000090F06000018180000001010003040FF3D
:1016D0000101001F01011E00191D1712003C3C3CB6
:1016E0003C0000000000010204081020408044314A
:1016F00011241FBECFEFDAE0DEBFCDBF11E0A0E0C6
:10170000B1E0E8E2FFE602C005900D92A036B10715
:10171000D9F727E0A0E6B1E001C01D92AD32B207D3
:10172000E1F71BE0C8E7DBE004C02197FE010E945F
:101730009035C737D107C9F70E943F260C949237DE
:101740000C9400002F923F924F925F926F927F9283
:101750008F929F92AF92BF92CF92DF92EF92FF92C1
:101760000F931F93CF93DF93A0903D02B0903E0262
:10177000B7FE03C017E0A10EB11CD3E0B594A79447
:10178000DA95E1F7350113E0660C771C1A95E1F75D
:1017900080913D0290913E0297FD0796C3E095959A
:1017A0008795CA95E1F70896E09150028A159B0546
:1017B0000CF497C0F0E0E255F34F8491E501B7FCDB
:1017C0002396FE01F595E795F595E795E80FF11D50
:1017D000E356F34FC491D0E08090410290904202D2
:1017E00097FE03C027E0820E911CF3E09594879446
:1017F000FA95E1F72401A3E0440C551CAA95E1F702
:10180000809141029091420297FD0796E3E0959501
:101810008795EA95E1F74096881599050CF45AC02A
:10182000B501C4010E943318882399F120913F0229
:10183000309140028C169D067CF0A90137FF02C052
:10184000415F5F4F74E0559547957A95E1F74C0FEE
:101850005D1F84169506ECF0A90137FF02C0415FB9
:101860005F4F64E0559547956A95E1F74C175D0722
:1018700094F437FF02C0215F3F4F44E03595279530
:101880004A95E1F7AE01421B530B91E08416950691
:101890001CF490E001C091E020913D0230913E02A5
:1018A000B301621B730BE0914102F0914202C92E19
:1018B000E12C082F20E030E043E55BE0C2018E1B05
:1018C0009F0B0E94341D5FEF851A950A88E0480E31
:1018D000511C96CFAFEFAA1ABA0AB8E06B0E711C72
:1018E00057CFE13029F0E23031F406E2CEE005C016
:1018F00002E0CDE202C000E0C0E010E0D0E0A801CC
:10190000BE0181E00E940B1380914B0290914C022A
:1019100023E0CC0FDD1F2A95E1F7AC014E5F5F4F4E
:101920009E01225F3F4F4217530714F540968C17D4
:101930009D07F4F08091490290914A02B3E0000FB4
:10194000111FBA95E1F7AC014E5F5F4F9801225F1E
:101950003F4F4217530764F440968017910744F0B5
:101960000E948F2383FF04C0809150020E9497142D
:1019700080915002813029F0823031F406E012E08B
:1019800005C001E011E002C000E010E0612E712C02
:10199000C12CD12C7601C394011708F467C0C12F64
:1019A000D0E04E01861897088091480290E0082CFC
:1019B00002C0959587950A94E2F780FD02C082E007
:1019C00001C083E02197CC0FDD1FFE01EA5BF44FDD
:1019D0005F014491CB5BD44FFE01649150E070E015
:1019E0000E940B1380914B0290914C02FE01C49116
:1019F000F8E0CF9FE0011124F501A490AC014E5F07
:101A00005F4F9E012E5E3F4F421753076CF52196A4
:101A10004096C817D90744F58091490290914A022F
:101A2000F8E0AF9E50011124AC014E5F5F4F95016D
:101A30002E5E3F4F42175307BCF42FEFA21AB20A93
:101A40004096A816B90684F40E948F2383FF0CC029
:101A500040914802242F30E0082C02C0359527958C
:101A60000A94E2F720FF65C51F5F96CF10915002E0
:101A70001295107F1051412C512C32014394FF24B8
:101A8000FA94812E912C2091500230E1239FC001C5
:101A90001124881699060CF0ADC043E0149F500144
:101AA0001124F501EB51F54FC491F501EA51F54FC1
:101AB000E49140979401281B390B8091260790915F
:101AC000270702C0969587952A95E2F780FF90C078
:101AD000809141029091420258E0C59FE00111249B
:101AE000AC014750510920913D0230913E02F0E097
:101AF000C417D5072CF042575F4F4C175D079CF475
:101B0000AF0173E0440F551F7A95E1F7B9016750B3
:101B10007109461757070CF46BC0625B7F4F64175F
:101B200075070CF465C01F0153E0220C331C5A9555
:101B3000E1F7B101621B730BC12CE12C01E020E045
:101B400030E040ED57E0DE01A81BB90BCD010E944B
:101B5000341D80912607909127072091500230E094
:101B60002150310964E0220F331F6A95E1F7821A90
:101B7000930A9C01082C02C0369527950A94E2F737
:101B800020FF36C04091410250914202C41BD50B48
:101B900020914B0230914C02241B350BA901405F70
:101BA0005F4FC417D50724F528962C173D0704F579
:101BB00040913D0250913E02F101E41BF50B209152
:101BC000490230914A02241B350BA901405F5F4F47
:101BD000E417F5076CF438962E173F074CF4209164
:101BE00004012950223020F42091470223FFC1C470
:101BF0001F5F47CF223069F02FE0822E22E0922E25
:101C0000AA24A394B12CC0E0D0E01EE04CE1F42E55
:101C1000E5C08BED882E8AE0982EA12CB12C412CAA
:101C2000512C320143941A2DF401C4913196E49160
:101C30008091250790E00A2C02C0959587950A941B
:101C4000E2F780FF99C08091410290914202F8E052
:101C5000CF9FE0011124AC014750510920913D0272
:101C600030913E02F0E0C417D5072CF042575F4F89
:101C70004C175D079CF4AF0103E0440F551F0A9514
:101C8000E1F7B90167507109461757070CF474C0A2
:101C9000625B7F4F641775070CF46EC01F01B3E0E1
:101CA000220C331CBA95E1F7B101621B730BC12CF6
:101CB000E12C01E020E030E040ED57E0DE01A81B20
:101CC000B90BCD010E94341D40912507842F90E06F
:101CD000012E02C0959587950A94E2F780FF4CC0CB
:101CE0002091410230914202C21BD30B80914B02E2
:101CF00090914C02821B930B9C01205F3F4FC217B7
:101D0000D307D4F528968C179D07B4F580913D0232
:101D100090913E02F101E81BF90B209149023091AC
:101D20004A02281B390BC9014096E817F90724F528
:101D300038962E173F0704F58091040189508230B0
:101D4000D8F49091470294FD17C090619093470298
:101D500010920201809143028F5F80934302D3016E
:101D6000C20104C0880F991FAA1FBB1F1A95D2F782
:101D70008095842380932507BFEFAB1ABB0AE2E06E
:101D80008E0E911CF5E0AF16B10409F04CCF34CFA4
:101D9000A0914102B0914202E8E08E9FC00111245F
:101DA000AD014750510920913D0230913E0270E053
:101DB00084179507ACF5AB01E3E0440F551FEA9596
:101DC000E1F7F90137974E175F0784F52196F2E0A6
:101DD000AF0EB11CCE30D10509F456C000915002AF
:101DE000202F30E021503109129FF001139FF00D98
:101DF0001124EC0FFD1FEE0FFF1FEB5AFA4F8491D9
:101E0000F29EF001F39EF00D1124EA0DFB1DEB5A3A
:101E1000FA4F6491D4019D914D019923B9F2B8CF45
:101E200042575F4F4817590734F4C5CFE25BFF4F65
:101E3000E417F5075CF2013011F002E101C00AE09D
:101E400043E0660F771F4A95E1F7621B730BC12CC5
:101E5000E12C20E030E040ED57E08A1B9B0B0E9414
:101E6000341DB4CFD801AD90BC901197A114B1042A
:101E700099F40C5F1F4FB2E008301B0799F780916F
:101E8000050781508093050780910507882309F491
:101E90007FC000E611E0E6CF12968D909C901397DC
:101EA00080914102909142029C0127503109A21673
:101EB000B3062CF089579F4F8A159B057CF48091BF
:101EC0003D0290913E029C012750310982169306F3
:101ED00084F2895B9F4F881599055CF265E070E09C
:101EE00080E090E00E946E236330710581059105CA
:101EF00009F0BFCF809146028823C1F0809108028B
:101F0000909109024B968815990584F061E070E084
:101F100080E090E00E946E23DC01CB010196A11DC0
:101F2000B11D3401680E791EE5011CC065E070E04A
:101F300080E090E00E946E23DC01CB010297A109B2
:101F4000B109E501C80FD91F65E070E080E090E0BD
:101F50000E946E23DC01CB010297A109B109340173
:101F6000680E791EB401CE010E945D19892B19F407
:101F7000F801D183C083B301C5010E945D19892B8B
:101F800009F077CFD80113967C926E92129771CF99
:101F900081E080930507C0E6D1E05E0183E0882EF2
:101FA000912CD501ED91FC911197309709F456C011
:101FB00012962D913C9113976090410270904202CD
:101FC000C3010797E817F9072CF082579F4F8E1728
:101FD0009F077CF480913D0290913E02AC014750F6
:101FE000510924173507D4F1895B9F4F8217930756
:101FF000ACF1809150028130D1F480918F069091A4
:102000009006B4010E946835892B19F087E009E039
:1020100002C086E008E040913D0250913E02B901C5
:10202000641B750BC12CE82E2DE835E010C0823002
:10203000A9F400910C02005F80913D0290913E0254
:10204000B901681B790BC12CE12C20E030E040ED98
:1020500057E0CF01861997090E94341DB4E0AB0EFA
:10206000B11CE8E0AE16E2E0BE0609F09ACF00919E
:10207000470200FD1BC0109107011123B9F06091C8
:10208000490270914A026E5F7F4F80914B0290919E
:102090004C022EE04EE002960E94F317892B31F09D
:1020A000016000934702115010930701A091500264
:1020B0008A2F90E001974EE0489F9001499F300D94
:1020C00011246CE1689FA001699F500D112470914B
:1020D000450260E0BBEA88819981892BA1F56B9F5D
:1020E000812D1124869590E0FC01E15FFD4FE08198
:1020F000EE2349F1EA81FB813196FB83EA83EC38D8
:10210000F10524F4A230F9F4F297ECF0FC01E20FAF
:10211000F31FEE0FFF1FEB5AFA4FE49118E0E19F17
:10212000F0011124F983E883FC01EE0FFF1FE40F97
:10213000F51FEA5AFA4FE49188E0E89FF001112474
:10214000FB83EA837F5F6F5F24966A3209F0C3CF17
:1021500070934502C0E1D7E016E0A12E17E0B12E42
:10216000812C912C412C512C32014394382C182D68
:10217000888199818033954709F05DC0832D0E9445
:102180008D13892B09F455C060913F027091400274
:1021900077FF02C0695F7F4FB3E075956795BA9589
:1021A000E1F7615071096230710594F0CB01770F4E
:1021B000AA0BBB0BBC01CD016150710981099109CA
:1021C0000E946E23DC01CB010196A11DB11D04C04C
:1021D00081E090E0A0E0B0E0F501808360913B02F7
:1021E00070913C0277FF02C0695F7F4FA3E0759555
:1021F0006795AA95E1F7615071096230710594F015
:10220000CB01770FAA0BBB0BBC01CD01615071094B
:10221000810991090E946E23DC01CB010196A11D69
:10222000B11D04C081E090E0A0E0B0E0F501818341
:10223000A5CF19821882888199819C0197FF02C0DD
:10224000295F3F4FF3E035952795FA95E1F7D501E2
:102250004C9150E06A817B812417350709F0C3C097
:102260009B0177FF02C0295F3F4FE3E0359527953B
:10227000EA95E1F7F501418150E02417350709F0AF
:10228000B2C0832D0E948D13892B09F458C06CE0D5
:1022900070E080E090E00E946E23DC01CB010697A5
:1022A000A109B109F5012081622F680F608366E002
:1022B00070E080E090E00E946E23DC01CB01039788
:1022C000A109B109F5012181622F680F6183808125
:1022D000F8E08F9FC001112420913F02309140020D
:1022E00027503109821793079CF428E0629FB001C0
:1022F000112420913B0230913C0227503109621792
:10230000730734F4089724F0683071050CF0B9CFE6
:102310008881998197FD079653E0959587955A9501
:10232000E1F7D5018C938A819B8197FD079643E065
:10233000959587954A95E1F7F5018183A2CF0091A4
:102340000C028091240790E0012E02C0959587959C
:102350000A94E2F7F82FF170CF2E39E0E32EE00E69
:10236000045F6A817B8180913D0290913E02681BEF
:10237000790B88819981E0914102F09142022DE828
:1023800035E040ED57E08E1B9F0B0E94341D67E245
:1023900070E080E090E00E946E23DC01CB010196AA
:1023A000A11DB11D823081F08330B1F5D301C2018E
:1023B00004C0880F991FAA1FBB1F1A95D2F78095DA
:1023C0009091240789230CC0D301C20104C0880F57
:1023D000991FAA1FBB1F1A95D2F720912407822BA1
:1023E0008093240719C000910C022BE0E22EE00E2E
:1023F000025F20913D0230913E02621B730BE0911F
:102400004102F0914202C12C2DE835E040ED57E049
:102410008E1B9F0B0E94341D88819981D5012C91C0
:10242000B8E02B9F90011124821793071CF40196AA
:102430009983888388819981281739071CF401972B
:10244000998388838A819B81F5012181F8E02F9F00
:1024500090011124821793071CF401969B838A83B1
:102460008A819B81281739071CF401979B838A83F3
:102470001FEF811A910A249622E0A20EB11C35E0CA
:102480008316910409F072CE809150028230A1F43B
:102490004CE050E06CE170E086E00E940B1344E1F8
:1024A00050E06CE270E086E00E940B134EE050E0DA
:1024B0006CE270E086E014C046E050E069E170E054
:1024C00080E00E940B138091450243E050E062E3FC
:1024D00070E0811104C0809143028823A9F084E058
:1024E000DF91CF911F910F91FF90EF90DF90CF90F0
:1024F000BF90AF909F908F907F906F905F904F9024
:102500003F902F900C940B1385E00E940B13809149
:102510004B0290914C02805891404C9708F066C055
:102520008091490290914A020A974C9708F05EC048
:102530004BC080914302811104C083E00E94971434
:1025400093CA101730F001138FCA90914502911170
:102550008BCA815080934302D701C60104C0880F03
:10256000991FAA1FBB1F8A94D2F7842B809348021D
:102570007BCA2860209347021092020140914402D6
:10258000F501E951F54F249130E0240F311D2F3F23
:10259000310521F01CF0F092440204C0E491E40FF4
:1025A000E0934402B301A20104C0440F551F661F0B
:1025B000771F8A94D2F7409550954823592350931A
:1025C00027074093260714CB0E948F2383FF0EC05A
:1025D0000E940F1D809143028F5F80934302809180
:1025E00047028061809347021092020180E090E0F0
:1025F000DF91CF911F910F91FF90EF90DF90CF90DF
:10260000BF90AF909F908F907F906F905F904F9012
:102610003F902F9008954F925F926F927F928F928A
:102620009F92AF92BF92CF92EF920F931F93CF934F
:10263000DF93182F110F110FC82FD0E05E018FEF1D
:10264000A81AB80AAA0CBB1CAA0CBB1C4A0103E0BE
:10265000880C991C0A95E1F7CC0FDD1FCC0FDD1F0C
:102660003B0193E0660C771C9A95E1F722E0422E3D
:10267000512C212F30E02A153B050CF03FC0F90109
:10268000ED50F24F0491013820F00058CC24C3944F
:1026900001C0C12C2C1B3D0B80913D0290913E024C
:1026A000F401E81BF90BC901B2010E947C35BC01A1
:1026B000A3E0660F771FAA95E1F76E0F7F1F809149
:1026C000410290914202A301481B590BCA0137FFF6
:1026D00002C02F5F3F4F35952795D90153E0AA0FD0
:1026E000BB1F5A95E1F7E12C20E030E043E55BE0C9
:1026F0008A0F9B1F0E94341D1F5FBBCFDF91CF91BC
:102700001F910F91EF90CF90BF90AF909F908F90BF
:102710007F906F905F904F9008956F927F929F92FD
:10272000AF92BF92CF92DF92EF92FF920F931F93DF
:10273000CF93DF93E82FF0E0EE0FFF1FEA5FF84F33
:10274000008128E0029F80011124C18158E0C59FCB
:10275000E0011124BE01C8010E942219892B09F051
:1027600082C028E048E0BE01C8010E94F31700972C
:1027700009F079C0A09050022A2D30E02150310993
:102780004EE0249F902C1124FEE0AF9E50011124B6
:10279000429FB001439F700D11244CE1429FD00134
:1027A000439FB00D1124780128E0E20EF11C6E0168
:1027B00058E0C50ED11C292D30E02A153B059CF5AB
:1027C000F901E15FFD4F4081442359F1F901E60F22
:1027D000F71FEE0FFF1FEB5AFA4FE491F8E0EF9F5F
:1027E000A0011124F901EE0FFF1FEA0FFB1FEA5AA7
:1027F000FA4FE4913A0128E0620E711C06151705A4
:1028000084F44E155F056CF458E0E59FF001112447
:102810009F01285F3F4FC217D3071CF4EC15FD053D
:1028200014F19394C8CF20914B0230914C02A9012E
:10283000405F5F4F04171507CCF4A801485F5F4F56
:10284000241735079CF42091490230914A02A901CE
:10285000405F5F4FC417D5074CF4AE01485F5F4F30
:10286000241735071CF481E090E01EC09801295D13
:10287000310927313105A0F49E012955310927314D
:10288000310588F3093511407CF09E012959310941
:102890002731310540F3C956D109679728F4E3CFB2
:1028A000003721E0120774F3DF91CF911F910F9150
:1028B000FF90EF90DF90CF90BF90AF909F907F9070
:1028C0006F9008950F93CF93DF93CDB7DEB76497E2
:1028D0000FB6F894DEBF0FBECDBFE0914D02F0E021
:1028E000EE0FFF1FE151F24F65917491CE010196F9
:1028F0000E949C3200E029E040E363E170E088E25E
:1029000090E00E94D01CE2E8F6E088E2848384E153
:102910008583CE0101960E94BA1B64960FB6F89487
:10292000DEBF0FBECDBFDF91CF910F9108952F92E3
:102930003F924F925F926F927F928F929F92AF924F
:10294000BF92CF92DF92EF92FF920F931F93CF939C
:10295000DF93CDB7DEB7A9970FB6F894DEBF0FBEF1
:10296000CDBF982E1DA21CA21FA21EA219A618A69A
:1029700040E050E06FE571E0CE0184960E942E2386
:102980000E940F1D00E02CE246E76AE070E085E05F
:1029900090E00E94D01CE9E0F3E093E7915021F031
:1029A000808180618193FACFE9E8F5E093E7915067
:1029B00021F0808188608193FACF0CE010E041E043
:1029C000B80187E090E00E949F230F5F1F4F043300
:1029D0001105A9F70CE010E041E0B80188E790E0AC
:1029E0000E949F230F5F1F4F04331105A9F724E0B6
:1029F00092120DC00E94271D10929A0610929906FD
:102A000010929806109297069AE0F92E01C0F12CC8
:102A1000A92CB12C81E0A81AB108AA0CBB1CAA0CE5
:102A2000BB1C84E1D82EDF1880E3882E8F188E011E
:102A30000F5F1F4F8CEF782E80914D02F501E80F4C
:102A4000F11DE80FF11DEE0FFF1FE153F24F6591ED
:102A50007491C8010E949C32F80101900020E9F7AE
:102A60003197AF01401B510BB801CE0184960E94F3
:102A70002E2348A559A5272D2403C001259F900D7D
:102A8000112480589F4F9695879580938606D09203
:102A900087066CA17DA182E896E00E9401238DE566
:102AA00091E00E94BA1B8FEFA81AB80A2EE0D20E4E
:102AB000D810C2CF84E0981254C186EF9FEF909354
:102AC000110780931007312C1FE058E0D52E6FE0DE
:102AD000862E912C66246394712CEAE04E2E512CA4
:102AE0000E948F2383FD3DC101E02CE140E864E2B8
:102AF00070E080E090E00E94D01CAD2CB12C28E169
:102B0000A21AB108212C822D63E00E945C350AE1F3
:102B1000090FC12CE12C20E030E043E55BE068E3E5
:102B200070E0C5010E94341D239488E0A80EB11CFA
:102B300023E12212E8CFD11002C048E1D42E8091C7
:102B40008F0680FFDA9400910C02CC24C394E02E0F
:102B500023E532E043E753E060E370E084E090E097
:102B60000E94341D80918F0690919006B4010E94BE
:102B70006835892B79F480910C0290910D020197B0
:102B800029F410920D0210920C0204C070920D02F2
:102B900060920C0200910C020D5E612F70E06E5D80
:102BA0007F4FC12CE12C20E030E040ED57E08DE17B
:102BB00090E00E94341D80918F0690919006B201A2
:102BC0000E946835892B29F4FF2011F01F5F01C096
:102BD00011501A3021F01F3021F4F12C02C0FF24D3
:102BE000F394809110079091110731105DC0889780
:102BF000E4F46AE570E080E090E00E946E23DC017E
:102C0000CB014E96A11DB11D8093060762E170E0D5
:102C100080E090E00E946E23DC01CB018496A11D30
:102C2000B11D809307073324339480918F0680FD74
:102C300009C0809110079091110701979093110797
:102C40008093100700910C02809124078170C82E98
:102C500039E0E32EE00E045F6091120770911307D4
:102C60002DE835E040ED57E0809110079091110775
:102C70000E94341D67E270E080E090E00E946E23C5
:102C8000DC01CB010196A11DB11D823039F08330EA
:102C900009F05FC0809124078E7F03C080912407D4
:102CA00081608093240755C000910C022BE0E22E36
:102CB000E00E025F6091120770911307C12C2DE89E
:102CC00035E040ED57E00E94341D2091100730910F
:102CD00011078091060790E02817390734F42F5F19
:102CE0003F4F309311072093100720911007309128
:102CF00011078217930734F42150310930931107DB
:102D00002093100720911207309113074091070775
:102D100050E02417350734F42F5F3F4F30931307EB
:102D2000209312072091120730911307421753077F
:102D300034F42150310930931307209312073324C0
:102D4000339420911007309111072817390709F49F
:102D5000312C80E00E94181D0E948B1E8823E1F315
:102D6000BFCE0E94F21A8CA19DA10E942E36A99678
:102D70000FB6F894DEBF0FBECDBFDF91CF911F918C
:102D80000F91FF90EF90DF90CF90BF90AF909F900A
:102D90008F907F906F905F904F903F902F9008950D
:102DA0004F925F927F928F929F92AF92BF92CF92FB
:102DB000DF92EF92FF920F931F93CF93DF9300D098
:102DC000CDB7DEB7DC016A3348F4603368F46132B2
:102DD00071F06E3209F0E9C025E20AC061546A312F
:102DE00008F0E3C0262F04C02AEE260F01C024E21B
:102DF0001496CC9014974C2D0C2C000C550BEFE036
:102E0000FEE0D490E0E1FEE0E491ED2CF12C2223F1
:102E100009F4C8C081E090E03E2F377011F480E0E3
:102E200090E03E2F369536953695830F911D8E9DF9
:102E300080018F9D100D9E9D100D11242003B00167
:102E4000219F700D11246F5E714F5701A40EB51EA6
:102E50001A141B040CF0A9C015968C901597082C19
:102E6000000C990894012F5F3F4FC9018E0F911DEF
:102E7000181619060CF099C0203431050CF095C0D5
:102E80006115710509F491C0822F8770890137FFA0
:102E900002C0095F1F4FF3E015950795FA95E1F71A
:102EA000F02F37FF04C0882311F0FFEFF00F57FF1A
:102EB00005C022273327241B350B02C020E030E059
:102EC00000E8A016B10424F090E89C19792E01C006
:102ED0007D2C721A0F2F0F2E000C110BFF3F1CF4CC
:102EE000C02EC09401C0C12CAA24A3949E2F977019
:102EF00009F4A12CE695E695E695EA0D0E0F111D55
:102F00000930110514F0E8E0EF1B1C2D1F0F5901CB
:102F1000DC9CA00CB11C11246A0D7B1DCC24C39435
:102F2000D12C082E02C0CC0CDD1C0A94E2F700E87C
:102F30001003400D511D1124240F351F2E573D4FF6
:102F40009E2E9F0E911689F1A9012B01042D061BBF
:102F5000071510F5F20104910C9D50010D9DB00C68
:102F60001124BA82A98217FD04C0FA010081A02AA7
:102F7000A082882359F017304CF45A01F0E8AF0EC4
:102F8000B11CF50180800A8108290083FFEF4F1AE8
:102F90005F0A4F5F5F4FDACF1F5F6E0D7F1D2058B6
:102FA0003F4FD0CF61E17EE050CF14968C911497C3
:102FB0008C5F14968C9381E090E00F900F90DF91DE
:102FC000CF911F910F91FF90EF90DF90CF90BF9026
:102FD000AF909F908F907F905F904F90089508954D
:102FE00080E090E00895CF92DF92EF92FF920F93EE
:102FF0001F93CF93DF93E0E6F1E038E0C32E32E099
:10300000D32EEC01C40FD11D8B01020F111D2081A5
:10301000318112161306ACF4428153817901A8E084
:10302000EA0EF11C8E159F0564F42C173D074CF435
:103030009A01285F3F4F621773071CF4401751072E
:103040003CF03496CE16DF0611F780E090E002C027
:1030500081E090E0DF91CF911F910F91FF90EF9071
:10306000DF90CF9008950F931F93CF93DF93A0919C
:103070005002B0E01197FD01E155F34FE4918B014F
:1030800077FF02C00D5F1F4F1595079515950795A2
:1030900098012E0F311DF901E356F34FE491EC0135
:1030A000CE1BD10940913F0250914002D7FF0AC088
:1030B000CA0157FD0796F3E095958795FA95E1F7D4
:1030C000C80FD91FCA0157FD0796E3E0959587956C
:1030D000EA95E1F7C817D90754F0CA0157FD0796DA
:1030E00033E0959587953A95E1F7C81BD90BCA014E
:1030F00057FD0F9624E0959587952A95E1F7C81717
:10310000D90734F49E01D7FF18C02D5F3F4F15C07B
:103110009A0157FF02C0215F3F4FF4E03595279594
:10312000FA95E1F7C21BD30B8C1B9D0BEC01219789
:103130009E01D7FF02C02D5F3F4F359527953595EE
:103140002795FD01ED58FE4EA491049FF001059FC7
:10315000F00D149FF00D1124F7FDFF9696E0F59504
:10316000E7959A95E1F7E20FF31FEA0FF11DED5194
:10317000FF4E249127FD20582223D9F004E010E0CF
:10318000CB01B8010E947C35FC01EE0FFF1FEE0F52
:10319000FF1FCE01B8010E947C35E80FF91F30E116
:1031A000239FE00DF11D1124ED58F14F849190E023
:1031B00002C080E090E0DF91CF911F910F910895C0
:1031C0000F931F93CF93DF9397FD07968C0193E0A6
:1031D000159507959A95E1F79B0177FF02C0295F46
:1031E0003F4FE90183E0D595C7958A95E1F7BE0188
:1031F000C8010E9433180697853F9105E8F0809139
:1032000050028230B9F4C8014C97029720F4CE01E5
:103210000C97029788F0C8018C97029758F4CE015A
:103220004497029748F0BE016E50710981E0623008
:10323000710518F080E001C081E0DF91CF911F910E
:103240000F910895CF92DF92EF92FF920F931F9309
:10325000CF93DF93EC018B016B0182E0C80ED11C90
:103260007E0182E0E80EF11CB601C7010E94E01861
:10327000811118C02496B601CE010E94E018811178
:1032800011C00C5F1F4FB801C7010E94E0188111E7
:1032900009C0B801CE010E94E018811103C080E08E
:1032A00090E002C081E090E0DF91CF911F910F91FB
:1032B000FF90EF90DF90CF900895BF92CF92DF9272
:1032C000EF92FF920F931F93CF93DF938C01EB014B
:1032D0007C0124E0E21AF1086B0182E0C81AD108EF
:1032E000B601C7010E942219009701F520915002F2
:1032F000223009F06BC098012E5D3109253131056E
:1033000030F49E012C5531092531310578F02FE636
:10331000E21621E0F20694F40E35E1E01E0774F0A7
:103320009E012C5931092531310518F481E090E0D6
:103330004DC0205D3F4F25313105C0F3209145023E
:10334000222361F098012E5531402531310530F4AA
:103350009E012C5631092531310540F3A0914802D8
:10336000B0E068E47BE040E050E0FB013197E4919D
:10337000F8E0EF9F90011124FB01B490F9013E9613
:10338000EE16FF068CF42F5F3F4F2017310764F4D1
:10339000F8E0BF9E90011124F9013E96CE16DF069B
:1033A0001CF4C217D30744F44F5F5F4F6E5F7F4F2B
:1033B00046305105D1F60AC09D01042E02C0359554
:1033C00027950A94E2F720FDEFCFB0CFDF91CF91A0
:1033D0001F910F91FF90EF90DF90CF90BF900895D5
:1033E000BF92CF92DF92EF92FF920F931F93CF93F2
:1033F000DF936091490270914A026C5F7F4F809128
:103400004B0290914C0204960E94E01881115FC01B
:103410006091490270914A026C5F7F4F80914B022C
:1034200090914C020C960E94E018811150C060915E
:10343000490270914A02645F7F4F80914B029091E4
:103440004C0204960E94E018811141C0609149022B
:1034500070914A02645F7F4F80914B0290914C02C1
:103460000C960E94E018811132C034C02F5F3F4F8C
:103470004E5F5F4F2630310589F1FA013197E491B3
:10348000F8E0EF9FC0011124FA01B4906C01FFE055
:10349000CF0ED11C0C151D054CF703968617970708
:1034A0002CF7E8E0BE9EC0011124FC013F96EE1609
:1034B000FF06E4F603968A179B07C4F6CE01022E98
:1034C00002C0959587950A94E2F780FDCFCF81E001
:1034D00090E021C080915002823019F080E090E0AD
:1034E0001AC060914B0270914C028B010E5F1F4F0E
:1034F000605F7F4FA0914902B0914A027D01F2E0E6
:10350000EF0EF11C5096C0914802D0E048E45BE019
:1035100020E030E0B2CFDF91CF911F910F91FF906B
:10352000EF90DF90CF90BF900895CF92DF92EF920F
:10353000FF920F931F93CF93DF93062FEA01122F71
:10354000BC01990F880B990B0E94A5326B017C017D
:1035500020E030E040E05FE30E94E03220E034E22F
:1035600044E759E40E944F34A70196010E94BB34FE
:103570000E942D356150710900934F0200E40093C1
:1035800090007093990060939800BE01DD0F880B46
:10359000990B0E94A5326B017C0120E030E040E0F5
:1035A0005FE30E94E03220E034E244E757E40E9407
:1035B0004F34A70196010E94BB340E942D35615003
:1035C000710910934E020093C0007093BF00609386
:1035D000D100DF91CF911F910F91FF90EF90DF907D
:1035E000CF90089580E00E94181D0E940F1D0E9438
:1035F0008F2383FFFCCF0E940F1D08952FB7F894EF
:1036000083E08093E9009091E800892F807295FF14
:1036100004C09091F20080E4891B2FBF0895CF93DE
:10362000DF931F92CDB7DEB76983DC01ED91FC918A
:103630000280F381E02D41E050E0BE016F5F7F4FDB
:1036400009950F90DF91CF91089583E08093E90071
:103650008091F200882319F08AE38093E8000895AE
:103660000E94FE1A90E008958F929F92AF92BF92AF
:10367000CF92DF92EF92FF920F931F93CF93DF933E
:103680006C017B018A0180911501882309F45CC0DB
:1036900080917D02882309F457C080917B0280FFCE
:1036A00005C08091E00082608093E000E801B12CC9
:1036B0008AEFA82E93E0892E2AE3922E209711F408
:1036C000BB20D9F10E94FE1A81110AC0AA94AA2037
:1036D000D9F161E070E080E090E00E94C722EECF77
:1036E000282F30E0C217D3070CF48C2F9FB7F89423
:1036F0008092E9002091E80025FF1DC0282F30E0CE
:10370000C21BD30BF701815020F041914093F1008F
:10371000FACFE20EF31EBB2019F09092E8000AC027
:103720008091E80085FD07C09092E800BB24B39427
:10373000209709F0B12C9FBFC1CF5D9884E680939C
:103740007A021016110644F081E090E0F6019383AE
:10375000828380E090E001C0C801DF91CF911F918A
:103760000F91FF90EF90DF90CF90BF90AF909F9020
:103770008F900895009769F0FC0101900020E9F70F
:103780003197AF01481B590BBC0182E896E00C94BD
:10379000012380E090E008958F929F92AF92BF92B4
:1037A0000F931F93CF93DF93CDB7DEB7A1970FB6DB
:1037B000F894DEBF0FBECDBF19A2423008F44AE034
:1037C0008E010F5D1F4F842E912CA12CB12CA501D1
:1037D00094010E941D34E62FB901CA01015011095C
:1037E000EA3014F4E05D01C0E95CD801EC93232BCE
:1037F000242B252B61F7C8010E94BA1BA1960FB696
:10380000F894DEBF0FBECDBFDF91CF911F910F9116
:10381000BF90AF909F908F9008952F923F924F92BC
:103820005F926F927F928F929F92AF92BF92CF9250
:10383000DF92EF92FF920F931F93CF93DF9300D00D
:1038400000D000D0CDB7DEB76C017A8369831C82CB
:103850001B821D821E8268E070E0CE0101960E94EC
:10386000B92401963C0168E070E0CE0101960E9407
:10387000B9248C0161E070E0CE0101960E94B92468
:1038800093012C0D3D1D37FD72C090E8C916D1047F
:103890000CF06DC098012F5F3F4F37FD68C0590194
:1038A000E3E0B594A794EA95E1F727703327232B3B
:1038B00019F09FEFA91AB90A582E22242394412CFB
:1038C00000E010E0E12CF12C33243394EA14FB04E3
:1038D0000CF04DC088248394912C61E070E0CE01FF
:1038E00001960E94B924892B21F482E0880E911C54
:1038F000F4CFB401CE0101960E94B924019620E0D4
:1039000030E02817390788F551104228220C51F56C
:10391000A7014F5F5F4F49305105A8F4B601600F12
:10392000711F6038710578F4F701F695FE2FEE27C8
:10393000F795E795EC0DFD1DE00FF11FEE57FD4FDC
:103940006081462A40820F5F1F4F061517053CF025
:103950007A0122242394412C00E010E003C02224A9
:103960002394412C2F5F3F4FCCCF5324AFCF2696CB
:103970000FB6F894DEBF0FBECDBFDF91CF911F9180
:103980000F91FF90EF90DF90CF90BF90AF909F90FE
:103990008F907F906F905F904F903F902F90089501
:1039A0008F929F92AF92BF92CF92DF92EF92FF924F
:1039B0000F93CF93DF936B01EC014C01840E911CAC
:1039C0005B01A20EB11CC815D905ECF47601D7FE37
:1039D00002C0E12CF12CC50121E4A216B10414F0BF
:1039E00080E490E0E816F90664F4C038D10528F4C4
:1039F000402FB701CE010E949F238FEFE81AF80AEB
:103A0000EACF2196E0CFDF91CF910F91FF90EF9019
:103A1000DF90CF90BF90AF909F908F90089582E3FA
:103A200090E00E948A230E948F238111F8CF08958D
:103A3000E2E8F2E0A0E0B8E000800EBC8111012CC9
:103A40001197A0FDFDCF0192B9F70DB4089580E064
:103A5000E2E8F2E081118FEF00248193819381935A
:103A600081930394D1F708952F923F924F925F92E2
:103A70006F927F928F929F92AF92BF92CF92DF927E
:103A8000EF92FF920F931F93CF93DF9300D000D05C
:103A90001F92CDB7DEB74C2CFA01D4903196E49149
:103AA0008D2C912CD401A80FB91F1A161B060CF0EF
:103AB0001AC1803891050CF016C15B01AE0EB11C25
:103AC0001A141B040CF00FC1603471050CF00BC10B
:103AD0006E2E669466946694E770CC24C394E111CC
:103AE00001C0C12CEC2DF0E0E60DF11DE89D500168
:103AF000E99DB00CF89DB00C1124EA9C1001EB9CE0
:103B0000300C11240A9DF0010B9DF00D11247B0156
:103B100077FF04C0EE24FF24E61AF70A0E2D077083
:103B2000702E7B0177FF03C017E0E10EF11C13E05C
:103B3000F594E7941A95E1F7ED8277FF08C07720B6
:103B400031F06FEF6E0D6D8368E06719762E97FF89
:103B500005C066277727681B790B02C060E070E01C
:103B6000A038B10524F0A0E85A2E581A01C05D2CE7
:103B7000561A0D81A02F002E000CBB0B0F3F1CF41A
:103B8000BA2EB09401C0B12CC60CAC0DB11D199762
:103B900024F0A8E0CA2E1D81C11A6D806B0CDC01D7
:103BA000062D10E80103A00DB11D11247D01E60EC4
:103BB000F71EDB9C600D711D11244E5F5F4FE60FF9
:103BC000F71F4E0F5F1F620D731D620F731FB42D21
:103BD000B1703B2E40FE14C0A52DB0E0FD01319721
:103BE0004E0F5F1F6E0F7F1FF401EA1BFB0B97FF49
:103BF00003C0F195E195F1094E0F5F1F6E0F7F1F16
:103C000081E090E05C01072C02C0AA0CBB1C0A9466
:103C1000E2F7D701AE57BD4F0D810C0D0D83852DF9
:103C200090E06401C81AD90A880D991D1D8161169A
:103C300009F459C08D01412C541409F445C0FA010E
:103C400024902115310521F0FB01E490F12C03C0F3
:103C5000EE24EA94F12C2A9C40012B9C900C112418
:103C60009C828B82AE9CF001AF9CF00DBE9CF00D4F
:103C700011247F01E094F094FA82E98267FC07C086
:103C8000F801F080EE2DEF218E2AF8018082772056
:103C900061F0F6E0F6154CF0F801E058FF4FE080D7
:103CA000FA80FE20EC80FE28F082332029F041507B
:103CB00051096150710904C04F5F5F4F6F5F7F4FC3
:103CC00043940F5F1F4FB8CF6394332029F0480F00
:103CD000591F680F791F04C04C0D5D1D6C0D7D1DB3
:103CE000A058BF4FA3CF0F900F900F900F900F9041
:103CF000DF91CF911F910F91FF90EF90DF90CF90C8
:103D0000BF90AF909F908F907F906F905F904F90FB
:103D10003F902F9008958FB7F89440917E02509174
:103D20007F0260918002709181028FBF8091940622
:103D3000942F981B80919506882331F090939606D6
:103D40001092950680E0089520919306921740F412
:103D50009F5F9217A0F491E093BF889513BE0895DA
:103D600081E0809395064093940680918F06909110
:103D7000900601969093900680938F0681E00895B7
:103D800020917D02211103C08FEF9FEF08955FB74F
:103D9000F89422E02093E9002091F20030E012161E
:103DA000130614F421E030E0422FFC0184E6415078
:103DB00038F0289880937C029091F1009193F7CF8E
:103DC0002115310521F08091F200882319F05FBFA1
:103DD000C90108958BE68093E800F9CFCF93DF9374
:103DE0001F92CDB7DEB7FC018485958597FD05C090
:103DF0002FEF3FEF358724870BC0CE0101960E943D
:103E0000C01E019719F4898190E002C08FEF9FEFE7
:103E10000F90DF91CF9108958091A30681110DC07D
:103E200082E080939F0684E08093A0061092A20611
:103E30001092A10681E08093A3068FE996E0089591
:103E4000FC018485958597FD0BC09FB7F89482E0AF
:103E50008093E9008091F2009FBF90E00196089561
:103E60009FB7F89482E08093E9008091F2009FBFB1
:103E700090E00895409102075091030720910007B8
:103E80003091010742175307B4F49091E800957000
:103E9000E1F39091E80092FD19C08093F1008091C8
:103EA00002079091030701968F739927892B19F4C4
:103EB0008EEF8093E80080910207909103070196AE
:103EC000909303078093020781E0089580E00895AE
:103ED000DF92EF92FF920F931F93CF93DF93D82E31
:103EE0008A017B01E40EF51EEB01CE15DF0571F0B2
:103EF000D7FE03C0FE01849101C088810E943A1F51
:103F000021968111F2CF8FEF9FEF01C0C801DF91A1
:103F1000CF911F910F91FF90EF90DF900895615026
:103F200030F02091F100FC0120830196F8CF289811
:103F300084E680937C0208953FB7F8948091FB0655
:103F40009091FC06A091FD06B091FE0626B5A89BB7
:103F500005C02F3F19F00196A11DB11D3FBFBA2F1B
:103F6000A92F982F8827820F911DA11DB11DBC017B
:103F7000CD0142E0660F771F881F991F4A95D1F740
:103F800008950F931F93CF93DF931F92CDB7DEB7A2
:103F90008C01FC018485958597FF0EC0CE010196AA
:103FA0000E94C01E019719F4898190E002C08FEF32
:103FB0009FEFF80195878487F801848595850F9098
:103FC000DF91CF911F910F9108950F931F93CF937E
:103FD000DF931F92CDB7DEB782E0898342E450E0E1
:103FE00066E771E180E80E94681F0E940C1FDC01F7
:103FF00012960D911C9113970115110589F0D801A6
:10400000ED91FC910280F381E02DBE016F5F7F4F47
:10401000C801099597FD04C0F80100851185ECCF12
:1040200089810F90DF91CF911F910F9108951F9279
:104030000F920FB60F9211248F939F938091E100FE
:104040009091E100937F9093E10083FF0FC0109265
:10405000E90091E09093EB001092EC0092E39093D2
:10406000ED0010927D0298E09093F00082FF20C056
:1040700093E09093E9009091F200992319F09AE36C
:104080009093E80090917A02992339F090917A0206
:10409000915090937A02992389F190917C0299230F
:1040A00039F090917C02915090937C02992341F1D8
:1040B00084FF10C08091E2008E7E81608093E200D8
:1040C0008091E1008F7E8093E10080917B028E7E63
:1040D000806111C080FF16C08091E2008E7E8061F9
:1040E0008093E2008091E1008E7E8093E1008091D8
:1040F0007B028E7E816080937B0204C05D9ACDCF6F
:10410000289AD6CF9F918F910F900FBE0F901F903E
:1041100018951F920F920FB60F921124CF92DF9233
:10412000EF92FF920F931F932F933F934F935F93C1
:104130006F937F938F939F93AF93BF93EF93FF936F
:10414000CF93DF93CDB7DEB76C97DEBFCDBF1092B4
:10415000E9008091E80083FFFBC168E0CE0145964D
:104160000E948F1F82EF8093E8008D8987FF05C032
:104170009091E80090FFFCCF03C09EEF9093E80081
:10418000982F907609F0C6C09E894F89588D2F8947
:10419000F88C91110CC0803829F48091FF0680932F
:1041A000F10002C01092F1001092F10045C191306F
:1041B00051F4811141C14130510509F03DC1809157
:1041C000FF068D7F0BC0933061F4811135C1413002
:1041D000510509F031C18091FF0682608093FF068E
:1041E0002BC1953049F48091E80080FFFCCF822FED
:1041F00080688093E30020C1963009F05EC00B8D8B
:104200001C8D22E01092E900109203071092020721
:10421000F21232C010920107109200070E94E51FAF
:1042200099E0BE016F5F7F4FDB01E92F1D92EA9598
:10423000E9F79983FA8291E09E8390EA98879AEF52
:1042400099872091020730910307275F3F4F3C83F6
:104250002B838D831092E9001092030710920207BE
:10426000109301070093000749E050E080E00E94AE
:10427000681F0E94E51FE0C010930107009300072C
:104280000E940C1FDC0112960D911C9113970115D1
:10429000110509F4BBC0D801ED91FC910480F581B2
:1042A000E02DBE016B5E7F4FC8010995009709F0B4
:1042B000C7C0F80100851185EACF973009F445C1E0
:1042C000983021F481E08093F100B6C0993009F074
:1042D000B3C0837009F039C1E7E5F1E081E031E076
:1042E00096E32081211109C08EE78093EA001092A5
:1042F000EA008F8980937D029FC08093E90030930C
:10430000EB0021912093EC009093ED008F5F8730BC
:1043100041F7EACF8B8D9C8D1092E9001092030734
:10432000109202079093010780930007898D8111F5
:1043300053C08E899D89913A49F4813209F005C1B3
:1043400047E050E06EE071E080E0BBC0913209F0E0
:10435000FCC0833269F48F89988DA0E0B0E080932F
:10436000160190931701A0931801B093190164C02E
:10437000803269F48091E80082FFFCCF67E08EE034
:1043800091E00E948F1F8BEF8093E80055C082322E
:1043900009F052C08F8980931501EEEFFFE78591F8
:1043A00094918B3F9C4D19F0E0E0F8E002C0EEEFF5
:1043B000FAE080910E0190910F01A0911001B0914F
:1043C0001101803B9440A105B10509F09EC0809188
:1043D000150180FF79C099C00E940C1FFC01028169
:1043E00013810115110509F4B0C0D801ED91FC91BC
:1043F0000190F081E02DBE016B5E7F4FC8010995F1
:1044000081111AC0F80100851185EBCFF1E0FF168C
:1044100009F44EC0F3E0FF1298C08F89882309F495
:104420004AC0823089F440E867E08AED91E10E9459
:104430008031882309F489C08EEF8093E80088C01A
:1044400018161906CCF381C0813029F440E86BE0DE
:104450008EEC91E1ECCF833009F077C00E940C1F05
:10446000DC011296ED90FC9013978E010F5F1F4FA9
:104470006801E114F10479F0D701ED91FC91068017
:10448000F781E02DB801C7010995080F111DF7014B
:10449000E084F184EECFD8011C92F6010190002057
:1044A000E9F73197BF016C197D0940E0C601BFCF24
:1044B0006CEB71E102C068EB71E1FB01449150E0EB
:1044C00080E80E94681FB8CFEE3F2AE0F20751F063
:1044D000808191818737A7E79A0721F09093FF0A9F
:1044E0008093FE0A87E797E791838083809160003D
:1044F000809304079BE088E10FB6F894A895809319
:1045000060000FBE9093600097CF808191818737C4
:10451000974709F091CFA8958091600088618093BA
:1045200060008091040780936000EE3FBAE0FB07D3
:1045300039F08091FE0A9091FF0A918380837CCFAD
:104540001092FF0A1092FE0A77CF81E28093EB006F
:104550006C960FB6F894DEBF0FBECDBFDF91CF9142
:10456000FF91EF91BF91AF919F918F917F916F914B
:104570005F914F913F912F911F910F91FF90EF907D
:10458000DF90CF900F900FBE0F901F9018958F92D5
:104590009F92AF92BF92CF92DF92EF92FF926B0108
:1045A0007C010E949C1F4B015C01C114D104E104F9
:1045B000F104F1F00E949C1FDC01CB0188199909DC
:1045C000AA09BB09883E9340A105B10570F321E01B
:1045D000C21AD108E108F10888EE880E83E0981E1F
:1045E000A11CB11CC114D104E104F10419F7DDCF01
:1045F000FF90EF90DF90CF90BF90AF909F908F9003
:104600000895CF92DF92EF92FF920F931F93CF9373
:10461000DF936C017A018B01C0E0D0E0CE15DF059D
:1046200081F0D8016D918D01D601ED91FC91019041
:10463000F081E02DC6010995892B11F02196EECF6E
:104640007E01C701DF91CF911F910F91FF90EF90F5
:10465000DF90CF90089508950E947D37EF92FF92EA
:104660000F931F93CF93DF93EC017B018A01888125
:104670009981009729F02A813B8124173507F8F4A6
:10468000B8016F5F7F4F0E94B736009759F099834A
:1046900088831B830A832C813D81232B81F4FC01B9
:1046A00010820DC088819981009711F00E942E36EA
:1046B000198218821D821C821B821A8207C01D83E8
:1046C0000C83B701888199810E948B37CE01DF91DD
:1046D000CF911F910F91FF90EF900895CF92DF92AD
:1046E000EF92FF92611571058105910549F06B010B
:1046F0007C010E944532A70196010E94B43303C099
:1047000060E070E0CB01FF90EF90DF90CF900895D4
:104710002D9A0895BC0180E090E00C94C7228FB1DF
:104720008095807F669B88601C9B846008950C94B4
:104730009E333E983F9808953E9A3F9A0895E6EE3C
:10474000F6E190E1969FD001A0781124A80F677040
:10475000E60FF11D9491AE57BD4F442319F08C9193
:10476000982B03C090958C9198239C9308952F9239
:104770003F924F925F926F927F928F929F92AF92F1
:10478000BF92CF92DF92EF92FF920F931F93CF933E
:10479000DF93CDB7DEB727970FB6F894DEBF0FBE15
:1047A000CDBF9F838E836A30A1F4DC0155962C9196
:1047B000559751968D919C915297B8E02B9F800D03
:1047C000911D1124EE81FF81928B818B108A1786B7
:1047D000B5C06D3009F4B2C0AE81BF811F960D9196
:1047E0001C91509700381105BCF0EE81FF8125899E
:1047F000422F50E087859089F6E02F9F800D911D14
:104800001124AE81BF8150969C938E931F9756962C
:104810002C9121117DC092C0EE81FF818188928808
:10482000F0E48F1691040CF7AE81BF8155963C9051
:10483000C801B5E03B9E800D911D11241816190684
:10484000A4F6432C512CC401E8E03E9E800D911D3E
:104850001124181619064CF6AE81BF815496BC91EE
:10486000BC83EE81FF81F389FD8325E0629FB00167
:104870001124CB018A519E4E3C011982F3012490F0
:10488000F981F53009F4212C540128E02B8320FE16
:1048900003C03D813A8302C08C818A839A81911141
:1048A00004C0AC81BD81AB17F9F078018E2D801B5F
:1048B0008315D0F465018C2D8A19831588F4E0E8FE
:1048C000EE16F10448F4F0E4CF16D10428F44A813E
:1048D000B601C7010E949F232FEFC21AD20AEBCF65
:1048E0003FEFE31AF30AE2CF26948B8181508B834A
:1048F000A40CB51C8111CBCF99819F5F9983040DC6
:10490000151DD30111963D01963009F0B7CF6DCF3B
:104910006AEF64039001659F300D112420583F4FCA
:10492000281739075CF4AE81BF81ED91FC91119796
:104930000190F081E02D6AE0CD01099581E090E0E1
:1049400027960FB6F894DEBF0FBECDBFDF91CF9193
:104950001F910F91FF90EF90DF90CF90BF90AF909D
:104960009F908F907F906F905F904F903F902F908F
:1049700008951F93CF93DF93DC0120E030E040E007
:1049800050E011E0C1E0D0E02617370791F114960E
:104990008C911497811115C014961C93149712963C
:1049A0008D919C911397ED91FC911197E80FF91F50
:1049B000E4911596EC931597019613969C938E931C
:1049C000129714969C91149715968C91159789239C
:1049D00049F0FE01022E02C0EE0FFF1F0A94E2F71B
:1049E0004E2B5F2B990F14969C9314972F5F3F4F7C
:1049F000CBCFCA01DF91CF911F9108950F931F93E1
:104A0000CF93DF9340915002242F30E021503109A1
:104A1000C901880F991FFC01EE51FE4EE49158E048
:104A2000E59FF0011124F0934002E0933F02FC0166
:104A3000ED51FE4EE49188E0E89FF0011124F093DF
:104A40003C02E0933B0285E08093040180930501E2
:104A50001092470210920E02413039F483E08093A5
:104A6000070110924402109243028FEF9FEF909340
:104A70002707809326078093250788E380934502C4
:104A80001092240710924802E0E1F7E0A6E0B7E0B8
:104A900084E297E060E375E771836083138212829A
:104AA0001C9211961C921197349612968E179F079E
:104AB00099F74130E1F48CED90E090934C028093B3
:104AC0004B028CE390E090934A028093490284EA7F
:104AD00090E0909342028093410284E290E09093B0
:104AE0003E0280933D02EFE0F2E083E026C080E3E7
:104AF00090E090934C0280934B0280E691E090937B
:104B00004A0280934902109242021092410280E4CC
:104B100091E090933E0280933D0284E680934602AA
:104B200088E691E090930B0280930A0288E190E07E
:104B30009093090280930802D6CF819392E0ED31E1
:104B4000F907D9F74CE1429FC001439F900D112412
:104B50008B5A9A4F20E030E0FC016491F8E06F9F9F
:104B6000B0011124FC013196E49148E0E49FF0018A
:104B7000112400271127021B130BD801A05ABE4F86
:104B800040E0E901CA0FDB1FC00FD11F79836883A2
:104B90001396FC93EE9312974F5F1496433089F768
:104BA00002962C50310928355FEF3507A9F684E1CC
:104BB0008093050784E090E0909322028093210285
:104BC000909328028093270290932E0280932D02C7
:104BD000909334028093330290933A028093390287
:104BE000DF91CF911F910F9108951F920F920FB6F1
:104BF0000F9211242F933F938F939F93AF93BF9363
:104C000080917E0290917F02A0918002B0918102FA
:104C10003091280723E0230F2D3720F40196A11DA2
:104C2000B11D05C026E8230F0296A11DB11D2093DA
:104C3000280780937E0290937F02A0938002B09316
:104C400081028091FB069091FC06A091FD06B09137
:104C5000FE060196A11DB11D8093FB069093FC06F4
:104C6000A093FD06B093FE06BF91AF919F918F91E7
:104C70003F912F910F900FBE0F901F901895CF93DB
:104C8000DF93CDB7DEB7A3970FB6F894DEBF0FBEA4
:104C9000CDBF789484B5826084BD84B5816084BDC5
:104CA00085B5826085BD85B5816085BD80916E00CA
:104CB000816080936E0010928100809181008260FB
:104CC0008093810080918100816080938100809138
:104CD0008000816080938000809191008260809349
:104CE000910080919100816080939100809190006B
:104CF0008160809390008091C10084608093C100A6
:104D00008091C10082608093C1008091C100816068
:104D10008093C1008091C30081608093C300809123
:104D2000C00082608093C0008091C2008160809347
:104D3000C20080917A00846080937A0080917A002A
:104D4000826080937A0080917A00816080937A00FB
:104D500080917A00806880937A0010927D02109290
:104D6000FF0610927B028091D70081608093D7006C
:104D700080EA8093D80089B5806189BD89B5826059
:104D800089BD09B400FEFDCF61E070E080E090E0F5
:104D90000E94C7228091D8008F7C80618093D800C8
:104DA0008091E000807F8093E0008091E1008E7E22
:104DB0008093E1008DE08093E200559A209A81EC87
:104DC00080937C0085B1806F85B984B1877E84B97A
:104DD00084B1876E84B95E9A5F988AB1806D8AB912
:104DE000769A6E9881B3806F81BB899880B38D70FD
:104DF00080BB80E58CBD81E08DBD85E090E00E94A8
:104E00008A235F9A85E090E00E948A235E985C98EE
:104E1000E4ECF1E084918EBD00000DB407FEFDCFFF
:104E2000319601E0E13DF007A9F75C9A81E88093B3
:104E300064008091650081608093650080E00E943D
:104E4000181D0E948F2387FF24C05C9885EA8EBDC1
:104E500000000DB407FEFDCF5C9A2E982F982D9878
:104E60008091640080628093640081E083BF8895B4
:104E700013BEFCCF2D980E948F238478843871F064
:104E80000E948F238471843131F188EC90E00E947C
:104E90008A230E948F2382FDEDCF3AC00E9488238F
:104EA00088EC90E00E948A232F9882E090E00E9494
:104EB0009E338F3F29F06FEF82E090E00E94A6338F
:104EC00084EF91E00E948A232F9A0E948F23847896
:104ED0008438D9F3D5CF0E94882388EC90E00E94D3
:104EE0008A232E9882E090E00E949E33882329F046
:104EF00060E082E090E00E94A63384EF91E00E949F
:104F00008A232E9A0E948F2384718431D9F3BDCFD6
:104F10000E94882382E090E00E949723882319F062
:104F20000E949C2302C00E94992381E090E00E948D
:104F30009723182F1470912E81FF85C011112E9880
:104F400000EF1FEFE8E0EE2EF12C0E948F2386FF8A
:104F500005C02E9A2F9A0E94882375C0992029F0A7
:104F60000430110511F42E9A2F9881E00E94181D2B
:104F7000980117FF04C022273327201B310B27700D
:104F80003327C80117FD079673E0959587957A95A5
:104F9000E1F717FF05C00197A701421B530B9A01C8
:104FA000AC015695542F4427579547954E575D4F62
:104FB00060E070E03701621A730A8F3FAFEF9A0723
:104FC0004CF40196685A7F4F40585F4F603B710523
:104FD000A1F71EC06A01B4E9CB0ED11C5A01A0E0B2
:104FE000B0E08F3FEFEF9E0709F4FBC6FD01E60F2F
:104FF000F71FEC5EFE4FE491F0E02F01022E01C09E
:10500000440C0A94EAF7F50184884828448AE9C6E2
:1050100080E00E94181D8FE090E00E948A230F5FBD
:105020001F4F0931110509F090CF992011F02F9AE7
:105030002D9880E991E00E948A230E94882388E8C5
:1050400096E00E94B5310E940F1D109290008AE0F8
:10505000809391001092C00088E08093C10010926C
:10506000C3001092BF001092CF0082E090E00E9437
:105070009723882321F081E08093080102C01092D9
:10508000080180E190E00E94972380934D028230D6
:1050900010F010924D020E948B1E882309F499C6CD
:1050A0000E94271D10929A06109299061092980657
:1050B0001092970680914F02882331F0815080939F
:1050C0004F02882309F4AEC680914E02882331F046
:1050D000815080934E02882309F4A7C680910D0168
:1050E000882359F0813089F42EE144E853E06EE1E1
:1050F00086EB93E00E94951A08C010924F0210921E
:10510000900010924E021092C0008FEF80930D011C
:1051100080915002811116C010920D010E948F23C0
:1051200083FF9EC680910C01813009F099C6809161
:105130000B01813009F094C690910A01933208F076
:1051400077C68EC60E94A20B80915002823009F071
:1051500015C120914B0230914C02C90189509140F8
:10516000873E910508F00AC18091490290914A0258
:10517000AC01495051094B35510508F0FFC0109260
:105180004802F0900C0210914602A0900A02B090E2
:105190000B026090080270900902112309F45DC0AF
:1051A000BC016E5F7F4FF50132966301B2E0CB0E1A
:1051B000D11CD5019096A9014E5F5F4F4A175B073E
:1051C000ECF4205F3F4FE217F307C4F49301205F34
:1051D0003F4F6217730794F44096C816D90674F4CB
:1051E0008091470280FD0AC08160809347028091D0
:1051F0000701882319F081508093070180918F0661
:10520000909190066CE370E00E946835009731F54C
:10521000E0E6F1E020813181232BC9F4DC01AA0F03
:10522000BB1FA05ABE4F9501205F3F4F2D933C936B
:10523000FC01EE0FFF1FEE59FE4FC3014096918314
:105240008083809145028F5F8093450207C002965C
:10525000349684359105F1F601C0F12C80913D0220
:1052600090913E022301481A590A8091410290917F
:1052700042024501881A990AC12CEF2C0F2D21ED0D
:1052800031E041E152E0B201C4010E94341DCC245E
:10529000C39421ED31E041E152E0B201C4014096F6
:1052A0000E94341D11112CC08091390290913A0254
:1052B000049731F580910101813210F591E09093CE
:1052C00003019501280F311D3093360220933502DA
:1052D000909100019301290F311D309338022093E2
:1052E000370210923A0210923902945090930001C2
:1052F000911106C090E190930001845080930101C8
:1053000080910101823218F08AE080930301112319
:1053100049F000E025E044E362E070E08BE490E0D7
:105320000E94D01C169501E023E0412F63E070E05D
:105330008EE790E0811B91090E94D01C8091510260
:1053400081110FC0C501019790930B0280930A024F
:10535000B3010E94E018882389F081E08093510214
:105360000DC0C501019690930B0280930A02B30110
:1053700080960E94E018811110925102E0904B0239
:10538000F0904C0280914102909142029701281BBB
:10539000390B2933310574F020913F0230914002DE
:1053A00020583109821793072CF4019690934202FA
:1053B0008093410280914102909142029701281B03
:1053C000390B2833310544F4181619062CF40197CB
:1053D00090934202809341020091490210914A0247
:1053E00080913D0290913E029801281B390B293192
:1053F000310574F020913B0230913C022054310978
:10540000821793072CF4019690933E0280933D02FD
:1054100080913D0290913E029801281B390B283162
:10542000310544F4181619062CF4019790933E02A6
:1054300080933D0280910701811103C09BE090930E
:105440000501D0900501D0920401882309F4F9C028
:105450000E948F2385FF18C087EF8D0D8230A0F04A
:10546000C701019790934C0280934B020E94F01960
:10547000892B21F0F0924C02E0924B0282E0809363
:10548000040186E0809305010E948F2386FF1DC0E2
:105490008091040189508230C0F0E0904B02F0907E
:1054A0004C02C701019690934C0280934B020E94DC
:1054B000F019892B21F0F0924C02E0924B0281E02E
:1054C0008093040185E0809305010E948F2387FF6C
:1054D00019C08091040189508230A0F0C801019761
:1054E00090934A02809349020E94F019892B21F07F
:1054F00010934A020093490283E08093040187E0FD
:10550000809305010E948F2384FF1DC080910401B8
:1055100089508230C0F00091490210914A02C801BE
:10552000019690934A02809349020E94F019892BB8
:1055300021F010934A020093490284E08093040111
:1055400088E0809305010E948F2383FF06C080912D
:1055500004018550843008F4CCC50E948F2383FD5C
:1055600007C08091050197EF980F923008F4CCC5E1
:105570000E948F2382FFCEC5E0904702E2FCCAC59D
:1055800080914402882309F4C5C52AE040E951E02E
:105590006AE084E690E00E94951A80910401982FB9
:1055A0009B7F00914B0210914C02923009F0C4C5D0
:1055B000F2E0FF2E843009F4CDC5883009F4CAC565
:1055C0008E2D8460809347020E948F2382FFA6C5A0
:1055D000FF20B9F1A2E5B2E080E090E0FC01339653
:1055E00016962D913C911797232B09F09CC5DC0151
:1055F000AA0FBB1FAE5ABD4F0D931C93DC01AA0F1F
:10560000BB1FAC5ABD4F2091490230914A022C5F1A
:105610003F4F2D933C93880F991FDC01AA5ABD4F31
:105620008F2D90E08D939C93EE0FFF1FEE5AFD4F50
:1056300006E410E01183008380914402815080933E
:10564000440262E5A62E62E0B62EEDE1F2E0FE8BAA
:10565000ED8B4F011F8AD50116962D913C9117971E
:10566000121613060CF048C114964D915C911597D3
:105670008D919C9111974130510521F402968D93A3
:105680009C931DC04230510529F40297F501918386
:10569000808315C0D50112968D919C91139743304C
:1056A000510531F4029713969C938E93129707C07D
:1056B0004430510521F40296F501938382832250F0
:1056C0003109D50117963C932E93169712966D903B
:1056D0007C90139720903D0230903E024D905C905C
:1056E000E0914102F0914202F98FE88FB3016450DA
:1056F000710962197309C2010497C12CEE24E39465
:1057000003E02DE835E040ED57E08E1B9F0B0E9433
:10571000341DB301C2010E945D19892B79F0D401B7
:1057200011965C924E9213967C926E9212971596F9
:105730001C921E921497F5011782168280915002D6
:1057400090E00197FCE1F89FB001F99F700D1124E2
:10575000EFE06E2EE2E07E2E40E050E02A01D30121
:10576000DD903D014F5F5F4FDD20B1F1FB01EB5A52
:10577000FA4F7F010491F8E00F9F80011124CB01C3
:105780008A5A9A4FFC012491D5010D90BC91A02D0D
:10579000BB8FAA8FFD0134960E171F07ECF4085F2C
:1057A0001F4F3897E017F107BCF4B8E02B9F90012A
:1057B0001124D5011296ED91FC9113978F010C5F86
:1057C0001F4F2017310744F4285F3F4F085011093D
:1057D000021713070CF40CC54F8B6E5F7F4F4E30D2
:1057E000510509F0BBCFF501428153816081718180
:1057F000A0E6B1E080E090E0088D198D0750110916
:105800001BA30AA39B01225031093B8F2A8FFB0166
:105810003496FD8FEC8F8A01025011091F8F0E8F75
:105820009A012C5F3F4F39A328A3210137E0431A87
:105830005108E7E42E0E311C688C798CF7E86F0E66
:10584000711C2D913C91119721153105D9F16C01F5
:105850000FEFC01AD00A1296ED91FC9113970AA18E
:105860001BA1201731071CF06216730634F4E415EF
:10587000F50544F12E163F062CF1790118E0E10EF2
:10588000F11C0A8D1B8D0E151F05E4F4790112E041
:10589000E10EF11C0C8D1D8DE016F1069CF47F01CC
:1058A00018E0E10EF11C0E8D1F8D0E151F0554F42E
:1058B0007F0112E0E10EF11C08A119A1E016F1062A
:1058C0000CF44FC4149602968435910509F0B9CFB3
:1058D00080910A0290910B02FC01B0969B0122502C
:1058E00031092E173F0744F402969B012C5F3F4F6E
:1058F000821793070CF455C418E0A10EB11C26E0E2
:10590000820E911C3AE7A31632E0B30609F0A3CE4B
:105910001AE0AD89BE8914968D919C9115978430BB
:1059200091050CF042C052E0E52EE80E04E0080FAD
:1059300012966D917C9113976450710980913D028C
:1059400090913E02681B790B8D919C910497E09198
:105950004102F0914202C12C2DE835E040ED57E0C4
:105960008E1B9F0B0E94341D10934F02B0E4B09326
:105970009000E7EAF1E6F0939900E09398006091D7
:10598000030170E080918F06909190060E94683527
:10599000892B59F4AD89BE8914968D919C911597E8
:1059A000019615969C938E931497ED89FE893696F1
:1059B000FE8BED8BEB53F24009F0ABCF2091470209
:1059C00020FF1DC080918F069091900663E070E0EB
:1059D0000E946835892B99F480910E028F5F809325
:1059E0000E028E3129F42E7F2093470210920E0270
:1059F0008091470281FFF2C38D7F80934702B09070
:105A00004702B1FCC7C0E09104018E2F90E0FC0179
:105A10003197EB30F10508F0E6C3EA5AFF4F2091C9
:105A20004B0230914C026091490270914A02A09160
:105A30003D02B0913E0240914102509142020C94CD
:105A4000903580910C0214E0180F24E083C08091FF
:105A50000C0214E0180F24E078C080910C0216E0CC
:105A600003C080910C0218E0180F25E06EC08091F1
:105A70000C0290910D0223E013E006C080910C020D
:105A800090910D0222E012E0892B09F060C062C003
:105A900010910C02212F5EC010910C02212F55C0D5
:105AA00000910C021AE0100F045F6A1B7B0B61501F
:105AB0007109C901841B950BC12C47E0E42E23E535
:105AC00032E043E753E00D960E94341D80918F062B
:105AD0009091900669E070E00E946835892BA1F5ED
